{
  "contractName": "UserContract",
  "abi": [
    {
      "inputs": [],
      "stateMutability": "nonpayable",
      "type": "constructor"
    },
    {
      "anonymous": false,
      "inputs": [
        {
          "indexed": false,
          "internalType": "uint256",
          "name": "_userID",
          "type": "uint256"
        }
      ],
      "name": "LoggedIn",
      "type": "event"
    },
    {
      "anonymous": false,
      "inputs": [
        {
          "indexed": false,
          "internalType": "uint256",
          "name": "userID",
          "type": "uint256"
        },
        {
          "indexed": false,
          "internalType": "string",
          "name": "_userName",
          "type": "string"
        }
      ],
      "name": "RegistrationSuccessful",
      "type": "event"
    },
    {
      "anonymous": false,
      "inputs": [
        {
          "indexed": false,
          "internalType": "uint256",
          "name": "userID",
          "type": "uint256"
        },
        {
          "indexed": false,
          "internalType": "string",
          "name": "userName",
          "type": "string"
        },
        {
          "indexed": false,
          "internalType": "string",
          "name": "email",
          "type": "string"
        },
        {
          "indexed": false,
          "internalType": "string",
          "name": "role",
          "type": "string"
        }
      ],
      "name": "UserDisplay",
      "type": "event"
    },
    {
      "inputs": [
        {
          "internalType": "string",
          "name": "_userName",
          "type": "string"
        },
        {
          "internalType": "string",
          "name": "_email",
          "type": "string"
        },
        {
          "internalType": "string",
          "name": "_password",
          "type": "string"
        },
        {
          "internalType": "enum UserContract.Role",
          "name": "_role",
          "type": "uint8"
        }
      ],
      "name": "register",
      "outputs": [],
      "stateMutability": "nonpayable",
      "type": "function"
    },
    {
      "inputs": [
        {
          "internalType": "string",
          "name": "_email",
          "type": "string"
        },
        {
          "internalType": "string",
          "name": "_password",
          "type": "string"
        }
      ],
      "name": "login",
      "outputs": [
        {
          "internalType": "bool",
          "name": "",
          "type": "bool"
        }
      ],
      "stateMutability": "view",
      "type": "function",
      "constant": true
    }
  ],
  "bytecode": "0x608060405234801561001057600080fd5b50600160008190555060016002819055506001600381905550600160048190555060016005819055506001600681905550611253806100506000396000f3fe608060405234801561001057600080fd5b50600436106100365760003560e01c806358467dbc1461003b578063796ed3391461006b575b600080fd5b61005560048036038101906100509190610baa565b610087565b6040516100629190610c3d565b60405180910390f35b61008560048036038101906100809190610c7d565b61033f565b005b6000808260405160200161009b9190610da9565b6040516020818303038152906040528051906020012090506000600760003373ffffffffffffffffffffffffffffffffffffffff1673ffffffffffffffffffffffffffffffffffffffff1681526020019081526020016000206040518060a00160405290816000820154815260200160018201805461011990610def565b80601f016020809104026020016040519081016040528092919081815260200182805461014590610def565b80156101925780601f1061016757610100808354040283529160200191610192565b820191906000526020600020905b81548152906001019060200180831161017557829003601f168201915b505050505081526020016002820180546101ab90610def565b80601f01602080910402602001604051908101604052809291908181526020018280546101d790610def565b80156102245780601f106101f957610100808354040283529160200191610224565b820191906000526020600020905b81548152906001019060200180831161020757829003601f168201915b50505050508152602001600382015481526020016004820160009054906101000a900460ff16600581111561025c5761025b610e20565b5b600581111561026e5761026d610e20565b5b815250509050846040516020016102859190610da9565b6040516020818303038152906040528051906020012081604001516040516020016102b09190610da9565b604051602081830303815290604052805190602001201480156103225750816040516020016102df9190610e7a565b60405160208183030381529060405280519060200120816060015160405160200161030a9190610e7a565b60405160208183030381529060405280519060200120145b1561033257600192505050610339565b6000925050505b92915050565b6000826040516020016103529190610da9565b6040516020818303038152906040528051906020012090506040518060a0016040528060005481526020018681526020018581526020018281526020018360058111156103a2576103a1610e20565b5b815250600760003373ffffffffffffffffffffffffffffffffffffffff1673ffffffffffffffffffffffffffffffffffffffff168152602001908152602001600020600082015181600001556020820151816001019081610403919061104b565b506040820151816002019081610419919061104b565b506060820151816003015560808201518160040160006101000a81548160ff0219169083600581111561044f5761044e610e20565b5b02179055509050506000600581111561046b5761046a610e20565b5b82600581111561047e5761047d610e20565b5b03610547576001600860003373ffffffffffffffffffffffffffffffffffffffff1673ffffffffffffffffffffffffffffffffffffffff16815260200190815260200160002060006101000a81548160ff0219169083151502179055506040518060400160405280600254815260200186815250600e60006002548152602001908152602001600020600082015181600001556020820151816001019081610526919061104b565b509050506002600081548092919061053d9061114c565b91905055506109f7565b6001600581111561055b5761055a610e20565b5b82600581111561056e5761056d610e20565b5b03610637576001600960003373ffffffffffffffffffffffffffffffffffffffff1673ffffffffffffffffffffffffffffffffffffffff16815260200190815260200160002060006101000a81548160ff0219169083151502179055506040518060400160405280600354815260200186815250600f60006003548152602001908152602001600020600082015181600001556020820151816001019081610616919061104b565b509050506003600081548092919061062d9061114c565b91905055506109f6565b6002600581111561064b5761064a610e20565b5b82600581111561065e5761065d610e20565b5b03610727576001600a60003373ffffffffffffffffffffffffffffffffffffffff1673ffffffffffffffffffffffffffffffffffffffff16815260200190815260200160002060006101000a81548160ff0219169083151502179055506040518060400160405280600154815260200186815250601060006001548152602001908152602001600020600082015181600001556020820151816001019081610706919061104b565b509050506001600081548092919061071d9061114c565b91905055506109f5565b6003600581111561073b5761073a610e20565b5b82600581111561074e5761074d610e20565b5b03610817576001600b60003373ffffffffffffffffffffffffffffffffffffffff1673ffffffffffffffffffffffffffffffffffffffff16815260200190815260200160002060006101000a81548160ff02191690831515021790555060405180604001604052806004548152602001868152506011600060045481526020019081526020016000206000820151816000015560208201518160010190816107f6919061104b565b509050506004600081548092919061080d9061114c565b91905055506109f4565b6004600581111561082b5761082a610e20565b5b82600581111561083e5761083d610e20565b5b03610907576001600c60003373ffffffffffffffffffffffffffffffffffffffff1673ffffffffffffffffffffffffffffffffffffffff16815260200190815260200160002060006101000a81548160ff02191690831515021790555060405180604001604052806005548152602001868152506012600060055481526020019081526020016000206000820151816000015560208201518160010190816108e6919061104b565b50905050600560008154809291906108fd9061114c565b91905055506109f3565b60058081111561091a57610919610e20565b5b82600581111561092d5761092c610e20565b5b036109f2576001600d60003373ffffffffffffffffffffffffffffffffffffffff1673ffffffffffffffffffffffffffffffffffffffff16815260200190815260200160002060006101000a81548160ff02191690831515021790555060405180604001604052806006548152602001868152506013600060065481526020019081526020016000206000820151816000015560208201518160010190816109d5919061104b565b50905050600660008154809291906109ec9061114c565b91905055505b5b5b5b5b5b600080815480929190610a099061114c565b91905055507ff8faab18c154b2401da3fa66203c1b688c537f57b092626a296d314df94d9cd060005486604051610a419291906111ed565b60405180910390a15050505050565b6000604051905090565b600080fd5b600080fd5b600080fd5b600080fd5b6000601f19601f8301169050919050565b7f4e487b7100000000000000000000000000000000000000000000000000000000600052604160045260246000fd5b610ab782610a6e565b810181811067ffffffffffffffff82111715610ad657610ad5610a7f565b5b80604052505050565b6000610ae9610a50565b9050610af58282610aae565b919050565b600067ffffffffffffffff821115610b1557610b14610a7f565b5b610b1e82610a6e565b9050602081019050919050565b82818337600083830152505050565b6000610b4d610b4884610afa565b610adf565b905082815260208101848484011115610b6957610b68610a69565b5b610b74848285610b2b565b509392505050565b600082601f830112610b9157610b90610a64565b5b8135610ba1848260208601610b3a565b91505092915050565b60008060408385031215610bc157610bc0610a5a565b5b600083013567ffffffffffffffff811115610bdf57610bde610a5f565b5b610beb85828601610b7c565b925050602083013567ffffffffffffffff811115610c0c57610c0b610a5f565b5b610c1885828601610b7c565b9150509250929050565b60008115159050919050565b610c3781610c22565b82525050565b6000602082019050610c526000830184610c2e565b92915050565b60068110610c6557600080fd5b50565b600081359050610c7781610c58565b92915050565b60008060008060808587031215610c9757610c96610a5a565b5b600085013567ffffffffffffffff811115610cb557610cb4610a5f565b5b610cc187828801610b7c565b945050602085013567ffffffffffffffff811115610ce257610ce1610a5f565b5b610cee87828801610b7c565b935050604085013567ffffffffffffffff811115610d0f57610d0e610a5f565b5b610d1b87828801610b7c565b9250506060610d2c87828801610c68565b91505092959194509250565b600081519050919050565b600081905092915050565b60005b83811015610d6c578082015181840152602081019050610d51565b60008484015250505050565b6000610d8382610d38565b610d8d8185610d43565b9350610d9d818560208601610d4e565b80840191505092915050565b6000610db58284610d78565b915081905092915050565b7f4e487b7100000000000000000000000000000000000000000000000000000000600052602260045260246000fd5b60006002820490506001821680610e0757607f821691505b602082108103610e1a57610e19610dc0565b5b50919050565b7f4e487b7100000000000000000000000000000000000000000000000000000000600052602160045260246000fd5b6000819050919050565b6000819050919050565b610e74610e6f82610e4f565b610e59565b82525050565b6000610e868284610e63565b60208201915081905092915050565b60008190508160005260206000209050919050565b60006020601f8301049050919050565b600082821b905092915050565b600060088302610ef77fffffffffffffffffffffffffffffffffffffffffffffffffffffffffffffffff82610eba565b610f018683610eba565b95508019841693508086168417925050509392505050565b6000819050919050565b6000819050919050565b6000610f48610f43610f3e84610f19565b610f23565b610f19565b9050919050565b6000819050919050565b610f6283610f2d565b610f76610f6e82610f4f565b848454610ec7565b825550505050565b600090565b610f8b610f7e565b610f96818484610f59565b505050565b5b81811015610fba57610faf600082610f83565b600181019050610f9c565b5050565b601f821115610fff57610fd081610e95565b610fd984610eaa565b81016020851015610fe8578190505b610ffc610ff485610eaa565b830182610f9b565b50505b505050565b600082821c905092915050565b600061102260001984600802611004565b1980831691505092915050565b600061103b8383611011565b9150826002028217905092915050565b61105482610d38565b67ffffffffffffffff81111561106d5761106c610a7f565b5b6110778254610def565b611082828285610fbe565b600060209050601f8311600181146110b557600084156110a3578287015190505b6110ad858261102f565b865550611115565b601f1984166110c386610e95565b60005b828110156110eb578489015182556001820191506020850194506020810190506110c6565b868310156111085784890151611104601f891682611011565b8355505b6001600288020188555050505b505050505050565b7f4e487b7100000000000000000000000000000000000000000000000000000000600052601160045260246000fd5b600061115782610f19565b91507fffffffffffffffffffffffffffffffffffffffffffffffffffffffffffffffff82036111895761118861111d565b5b600182019050919050565b61119d81610f19565b82525050565b600082825260208201905092915050565b60006111bf82610d38565b6111c981856111a3565b93506111d9818560208601610d4e565b6111e281610a6e565b840191505092915050565b60006040820190506112026000830185611194565b818103602083015261121481846111b4565b9050939250505056fea2646970667358221220bc5ec2dab2715f0b2318efed69ef35ad7a9ae9d1f7865d7167b509c35aa90f6d64736f6c63430008130033",
  "immutableReferences": {},
  "source": "// SPDX-License-Identifier: MIT\r\n\r\npragma solidity >=0.4.22 <0.9.0;\r\n\r\npragma experimental ABIEncoderV2;\r\n\r\ncontract UserContract {\r\n    \r\n    \r\n    //state variable for userIDs\r\n    uint256 userID;\r\n\r\n    //state variables for doctors Ids\r\n    uint256 doctorID;\r\n\r\n    //state variables for receptionists Ids\r\n    uint256 receptionistID;\r\n\r\n    //state variables for nurses Ids\r\n    uint256 nurseID;\r\n\r\n    //state variables for laboratory technicians Ids\r\n    uint256 labTechID;\r\n\r\n    //state variable for pharmacists Ids\r\n    uint256 pharmacistID;\r\n\r\n    //state variable for admin Ids\r\n    uint256 adminID;\r\n\r\n    //////////////// STATE VARIABLES END////////////////////////////////\r\n\r\n    constructor() {\r\n\r\n        userID = 1;          //initializes the doctor ID to 1\r\n        receptionistID =1;   //initializes the receptionist ID to 1\r\n        nurseID =1;          //initializes the nurse ID to 1\r\n        labTechID =1;        //initializes the labTech ID to 1\r\n        pharmacistID =1;     //initializes the pharmacist ID to 1\r\n        adminID =1;          //initializes the admin ID to 1\r\n\r\n    }\r\n\r\n\r\n    ////////////// CONSTRUCTOR END ///////////////////////////////////\r\n\r\n\r\n    ////////////////  ADDRESESS END ////////////////////////////////////\r\n\r\n    enum Role {Receptionist, Nurse, Doctor, LabTech, Pharmacist, Admin}\r\n\r\n    ///////////////// ENUMS END //////////////////////////////////////\r\n\r\n    //a mapping for all users\r\n    mapping(address => User) private users;\r\n\r\n    //Role specific mappings\r\n    mapping(address => bool) private receptionists;\r\n    mapping(address => bool) private nurses;\r\n    mapping(address => bool) private doctors;\r\n    mapping(address => bool) private labTechs;\r\n    mapping(address => bool) private pharmacists;\r\n    mapping(address => bool) private admins;\r\n\r\n    //mapping for role structs\r\n    mapping(uint => Receptionist) private Receptionists;\r\n    mapping(uint => Nurse) private Nurses;\r\n    mapping(uint => Doctor) private Doctors;\r\n    mapping(uint => LabTech) private LabTechs;\r\n    mapping(uint => Pharmacist) private Pharmacists;\r\n    mapping(uint => Admin) private Admins;\r\n\r\n\r\n\r\n    //////////////// MAPPINGS END /////////////////////////////////////\r\n\r\n    // An event to show user has been successfully registered\r\n    event RegistrationSuccessful(uint userID, string _userName);\r\n\r\n    //an event to show successful login\r\n    event LoggedIn(uint _userID);\r\n\r\n    // Event to display user data\r\n    event UserDisplay(uint256 userID, string userName, string email, string role);\r\n\r\n\r\n\r\n\r\n    //////////////// EVENTS END ///////////////////////////////////////\r\n\r\n    //modifier to check if the sender is a user\r\n    modifier onlyUser() {\r\n        \r\n        require(users[msg.sender].userID != 0, \"Only users allowed\");\r\n        _;\r\n    }\r\n\r\n    //modifier to only allow receptionists to do something\r\n    modifier onlyReceptionists() {\r\n\r\n        require(users[msg.sender].role == Role.Receptionist, \"Only receptionists allowed\");\r\n        _;\r\n    }\r\n\r\n    //modifier to only allow nurses to do something\r\n    modifier onlyNurses() {\r\n\r\n        require(users[msg.sender].role == Role.Nurse, \"Only nurses allowed\");\r\n        _;\r\n    }\r\n\r\n    //modifier to only allow doctors to do something\r\n    modifier onlyDoctors() {\r\n\r\n        require(users[msg.sender].role == Role.Doctor, \"Only doctors allowed\");\r\n        _;\r\n    }\r\n\r\n    //modifier to only allow laboratory technicians to do something\r\n    modifier onlyLabTechs() {\r\n\r\n        require(users[msg.sender].role == Role.LabTech, \"Only laboratory technicians allowed\");\r\n        _;\r\n    }\r\n\r\n    //modifier to only allow pharmacists to do something\r\n    modifier onlyPharmacists() {\r\n\r\n        require(users[msg.sender].role == Role.Pharmacist, \"Only pharmacists allowed\");\r\n        _;\r\n    }\r\n\r\n    //modifier to only allow admins to do something\r\n    modifier onlyAdmins() {\r\n\r\n        require(users[msg.sender].role == Role.Admin, \"Only admins allowed\");\r\n        _;\r\n    }\r\n\r\n\r\n\r\n\r\n\r\n\r\n    ////////////// MODIFIERS END /////////////////////////////////////\r\n\r\n\r\n    //struct for all users\r\n    struct User {\r\n\r\n        uint userID;\r\n        string userName;\r\n        string email;\r\n        bytes32 password;\r\n        Role role;\r\n\r\n    }\r\n\r\n    //struct for receptionists\r\n    struct Receptionist {\r\n\r\n        uint receptionistID;\r\n        string receptionistName;\r\n    }\r\n\r\n    //struct for nurses\r\n    struct Nurse {\r\n        uint nurseID;\r\n        string nurseName;\r\n    }\r\n    \r\n    //struct for doctors\r\n    struct Doctor {\r\n\r\n        uint doctorID;\r\n        string doctorName;\r\n    }\r\n\r\n    //struct for laboratory technician\r\n    struct LabTech {\r\n        uint labTechID;\r\n        string labTechName;\r\n    }\r\n\r\n    //struct for pharmacists\r\n    struct Pharmacist {\r\n\r\n        uint pharmacistID;\r\n        string pharmacistName;\r\n    }\r\n\r\n    struct Admin {\r\n\r\n        uint adminID;\r\n        string adminName;\r\n    }\r\n\r\n\r\n\r\n\r\n\r\n\r\n\r\n\r\n    ///////////////// STRUCTS END /////////////////////////////////////\r\n\r\n\r\n\r\n    function register(\r\n\r\n        string memory _userName,\r\n        string memory _email,\r\n        string memory _password,\r\n        Role _role\r\n\r\n    ) public {\r\n\r\n        bytes32 _passwordHash = keccak256(abi.encodePacked(_password));\r\n\r\n        users[msg.sender] = User({\r\n\r\n            userID: userID,\r\n            userName: _userName,\r\n            email: _email,\r\n            password: _passwordHash,\r\n            role: _role\r\n\r\n        });\r\n\r\n        // Update role-specific mappings\r\n        if (_role == Role.Receptionist) {\r\n            receptionists[msg.sender] = true;\r\n            Receptionists[receptionistID] = Receptionist({\r\n\r\n                receptionistID: receptionistID,\r\n                receptionistName: _userName\r\n            });\r\n            receptionistID++;\r\n\r\n        } else if (_role == Role.Nurse) {\r\n            nurses[msg.sender] = true;\r\n            Nurses[nurseID] = Nurse({\r\n\r\n                nurseID: nurseID,\r\n                nurseName: _userName\r\n            });\r\n            nurseID++;\r\n\r\n        } else if (_role == Role.Doctor) {\r\n            doctors[msg.sender] = true;\r\n            Doctors[doctorID] = Doctor({\r\n\r\n                doctorID: doctorID,\r\n                doctorName: _userName\r\n            });\r\n            doctorID++;\r\n\r\n        } else if (_role == Role.LabTech) {\r\n            labTechs[msg.sender] = true;\r\n            LabTechs[labTechID] = LabTech({\r\n\r\n                labTechID: labTechID,\r\n                labTechName: _userName\r\n            });\r\n            labTechID++;\r\n\r\n        } else if (_role == Role.Pharmacist) {\r\n            pharmacists[msg.sender] = true;\r\n            Pharmacists[pharmacistID] = Pharmacist({\r\n\r\n                pharmacistID: pharmacistID,\r\n                pharmacistName: _userName\r\n            });\r\n            pharmacistID++;\r\n\r\n        } else if (_role == Role.Admin) {\r\n            admins[msg.sender] = true;\r\n            Admins[adminID] = Admin({\r\n\r\n                adminID: adminID,\r\n                adminName: _userName\r\n            });\r\n            adminID++;\r\n\r\n        }        \r\n        userID++;\r\n\r\n        emit RegistrationSuccessful(userID, _userName);\r\n\r\n    }\r\n\r\n    //function allow user to login in to the system\r\n    function login(\r\n\r\n\r\n        string memory _email,\r\n        string memory _password\r\n    ) public view returns(bool) {\r\n\r\n        bytes32 passwordHash = keccak256(abi.encodePacked(_password));\r\n        User memory _user =   users[msg.sender];\r\n        if (\r\n            keccak256(abi.encodePacked(_user.email)) == keccak256(abi.encodePacked(_email)) && \r\n            keccak256(abi.encodePacked(_user.password)) ==keccak256(abi.encodePacked(passwordHash))\r\n        ) {\r\n            return true;\r\n        } else {\r\n            return false;\r\n        }\r\n    }\r\n\r\n\r\n\r\n    //////////////////// FUNCTIONS END //////////////////////////////////\r\n\r\n}",
  "sourcePath": "C:\\Users\\masanula\\Desktop\\web3\\src\\truffle\\contracts\\UserContract.sol",
  "compiler": {
    "name": "solc",
    "version": "0.8.19+commit.7dd6d404.Emscripten.clang"
  },
  "schemaVersion": "3.4.14",
  "updatedAt": "2023-07-13T09:21:37.673Z",
  "networkType": "ethereum",
  "devdoc": {
    "kind": "dev",
    "methods": {},
    "version": 1
  },
  "userdoc": {
    "kind": "user",
    "methods": {},
    "version": 1
  }
}